:100000000C945E000C9486000C9486000C94860080
:100010000C9486000C9486000C9486000C94860048
:100020000C9486000C9486000C9486000C94910528
:100030000C9486000C9486000C9486000C94860028
:100040000C949F040C9486000C9432020C9464026D
:100050000C9486000C9486000C9486000C94860008
:100060000C9486000C948600000000080002010039
:100070000003040700000000000000000102040863
:100080001020408001020408102001020408102002
:10009000040404040404040402020202020203032E
:1000A0000303030300000000250028002B000000CC
:1000B0000000240027002A00A400940211241FBE7F
:1000C000CFEFD8E0DEBFCDBF11E0A0E0B1E0E6E2C7
:1000D000F5E102C005900D92A835B107D9F722E0ED
:1000E000A8E5B1E001C01D92AE34B207E1F710E01F
:1000F000CEE5D0E004C02197FE010E947C0ACC35F9
:10010000D107C9F70E94F8000C94910A0C940000E2
:10011000089526E040E855E260E070E08EE591E069
:100120000E94CD0166E070E088E591E00E946C07D6
:1001300021E04FEF6AE570E088E591E00C94050955
:1001400088E591E00C94BA0888E591E00C94D0061B
:10015000CF92DF92EF92FF92CF93DF938EE591E003
:100160000E940701892BE9F141E060E070E08EE533
:1001700091E00E9426046B017C01EB016EE071E0CE
:100180008EE591E00E9401034AE050E0B6018EE561
:1001900091E00E94A103C53BD1052CF4D7FE05C018
:1001A000C0E0D0E002C0C4EBD0E021E04FEFBE01E0
:1001B00088E591E00E94050964E271E08EE591E036
:1001C0000E9401030E94A0004AE050E0BC018EE5BD
:1001D00091E0DF91CF91FF90EF90DF90CF900C9462
:1001E000A103DF91CF91FF90EF90DF90CF90089522
:1001F0000E9456050E9488000E948900C5E3D1E054
:100200000E94A8002097E1F30E943501F9CFFC017C
:10021000918D228D892F90E0805C9F4F821B9109E8
:100220008F7399270895FC01918D828D981731F075
:10023000828DE80FF11D858D90E008958FEF9FEF7F
:100240000895FC01918D828D981761F0828DDF01F8
:10025000A80FB11D5D968C91928D9F5F9F73928FB9
:1002600090E008958FEF9FEF08958AE892E0892B40
:1002700049F080E090E0892B29F00E948A028111E8
:100280000C9400000895FC01848DDF01A80FB11DBE
:10029000A35ABF4F2C91848D90E001968F739927BC
:1002A000848FA689B7892C93A089B1898C918064A9
:1002B0008C93938D848D981306C00288F389E02D6A
:1002C00080818F7D80830895CF93DF93EC01888DAB
:1002D0008823C9F0EA89FB89808185FD05C0A8894A
:1002E000B9898C9186FD0FC00FB607FCF5CF8081D0
:1002F00085FFF2CFA889B9898C9185FFEDCFCE011A
:100300000E944301E7CFDF91CF910895EF92FF92D2
:100310000F931F93CF93DF93EC0181E0888F9B8D28
:100320008C8D981305C0E889F989808185FD24C0EA
:10033000F62E0B8D10E00F5F1F4F0F731127E02E6D
:100340008C8DE8120CC00FB607FCFACFE889F9894A
:10035000808185FFF5CFCE010E944301F1CF8B8DC7
:10036000FE01E80FF11DE35AFF4FF0820B8FEA897F
:10037000FB898081806207C0EE89FF896083E889FC
:10038000F98980818064808381E090E0DF91CF9162
:100390001F910F91FF90EF900895CF92DF92EF920F
:1003A000FF921F93CF93DF93EC016A017B01122F21
:1003B000E889F98982E080834115514E6105710514
:1003C000B1F060E079E08DE390E0A70196010E9432
:1003D000300ADA01C9010197A109B109B695A795BB
:1003E00097958795AC01411580E15807A8F0E889F9
:1003F000F989108260E874E88EE190E0A701960127
:100400000E94300ABA01A9014150510961097109DC
:100410007695679557954795EC85FD855083EE85D4
:10042000FF854083188EEC89FD891083EA89FB895A
:10043000808180618083EA89FB89808188608083F4
:10044000EA89FB89808180688083EA89FB898081D1
:100450008F7D8083DF91CF911F91FF90EF90DF9090
:10046000CF9008951F920F920FB60F9211242F93E1
:100470008F939F93EF93FF93E0916E01F0916F0143
:100480008081E0917401F091750182FD12C090812C
:10049000809177018F5F8F7320917801821751F0DF
:1004A000E0917701F0E0E25AFE4F958F809377015B
:1004B00001C08081FF91EF919F918F912F910F90BB
:1004C0000FBE0F901F9018951F920F920FB60F92AC
:1004D00011242F933F934F935F936F937F938F9349
:1004E0009F93AF93BF93EF93FF938EE591E00E94AC
:1004F0004301FF91EF91BF91AF919F918F917F91B8
:100500006F915F914F913F912F910F900FBE0F9080
:100510001F9018958EE591E00E94070121E0892B3C
:1005200009F420E0822F0895EEE5F1E013821282B3
:1005300088EE93E0A0E0B0E084839583A683B78340
:100540008DE391E09183808385EC90E095878487AB
:1005500084EC90E09787868780EC90E0918B808B8D
:1005600081EC90E0938B828B82EC90E0958B848B76
:1005700086EC90E0978B868B118E128E138E148EE4
:100580000895CF92DF92EF92FF920F931F93CF9334
:10059000DF936C017A018B01C0E0D0E0CE15DF055E
:1005A00089F0D8016D918D01D601ED91FC910190FA
:1005B000F081E02DC6010995892B11F47E0102C05E
:1005C0002196ECCFC701DF91CF911F910F91FF9042
:1005D000EF90DF90CF9008956115710579F0FB01E0
:1005E00001900020E9F73197AF01461B570BDC0162
:1005F000ED91FC910280F381E02D099480E090E080
:1006000008950C94EC02DC01ED91FC910190F081D5
:10061000E02D099469E471E00C94EC024F925F9232
:100620006F927F92EF92FF920F931F93CF93DF937E
:10063000CDB7DEB7A1970FB6F894DEBF0FBECDBF22
:100640007C01FA01CB0119A2223008F42AE08E01C4
:100650000F5D1F4F422E512C612C712CBF01A30145
:1006600092010E94300AF901CA01015011096A3051
:1006700014F4605D01C0695CD8016C93232B242BBA
:10068000252B61F7B801C7010E94EC02A1960FB6B5
:10069000F894DEBF0FBECDBFDF91CF911F910F91B8
:1006A000FF90EF907F906F905F904F900895CF9262
:1006B000DF92EF92FF920F931F93CF93DF93EC01A2
:1006C0006A017B012115310579F4E881F9810190F6
:1006D000F081E02D642FDF91CF911F910F91FF905A
:1006E000EF90DF90CF9009942A303105E9F477FF3D
:1006F0001AC06DE20E9403038C0144275527BA01FA
:100700004C195D096E097F092AE0CE010E940E0393
:10071000800F911FDF91CF911F910F91FF90EF906C
:10072000DF90CF9008952AE0B701A601CE01DF91B6
:10073000CF911F910F91FF90EF90DF90CF900C948D
:100740000E030F931F93CF93DF93EC019A01AB013C
:10075000770F660B770B0E9457038C01CE010E9426
:100760000A03800F911FDF91CF911F910F91089580
:100770000F931F93CF93DF93EC010E94E9046887E6
:1007800079878A879B87E881F9810084F185E02D4C
:10079000CE01099597FF17C00E94E90408851985C5
:1007A0002A853B85DC01CB01801B910BA20BB30B8F
:1007B0000C811D812E813F8180179107A207B3070D
:1007C00010F38FEF9FEFDF91CF911F910F9108955D
:1007D000FF920F931F93CF93DF93EC018B01F42EC5
:1007E000CE010E94B8039C0197FD0BC08D3291058C
:1007F00041F0C0970A9728F0FF2029F02E323105EA
:1008000011F4C9011DC001301105C1F002301105FC
:1008100069F42D30310551F034F42950310922307A
:10082000310520F00BC02032310541F4E881F98117
:100830000680F781E02DCE010995D2CF8FEF9FEF93
:10084000DF91CF911F910F91FF9008958F929F920A
:10085000AF92BF92CF92DF92FF920F931F93CF93ED
:10086000DF9300D000D0CDB7DEB78C01B42E40E0CE
:100870000E94E803FC0197FD4CC020E030E0A90194
:10088000F12CCB2CBB0CDD08EC15FD05F1F0ED32A5
:10089000F105C9F0CF01C0970A97B8F4AAE0B0E01B
:1008A0000E94710A4F01FF0FAA08BB08DC01CB01AF
:1008B000880D991DAA1DBB1D9C01AD012053310956
:1008C0004109510902C0FF24F394D801ED91FC9134
:1008D0000680F781E02DC80129833A834B835C832E
:1008E0000995C8010E94B803FC01C09729813A818B
:1008F0004B815C810A9740F2EC15FD0529F2FF203F
:1009000061F066277727CB01621B730B840B950B75
:1009100006C060E070E0CB0102C0CA01B9010F90CF
:100920000F900F900F90DF91CF911F910F91FF903B
:10093000DF90CF90BF90AF909F908F9008951F92BF
:100940000F920FB60F9211242F933F938F939F9383
:10095000AF93BF938091FC019091FD01A091FE01A6
:10096000B091FF013091FB0123E0230F2D3720F4DC
:100970000196A11DB11D05C026E8230F0296A11DF9
:10098000B11D2093FB018093FC019093FD01A09386
:10099000FE01B093FF018091000290910102A091AD
:1009A0000202B09103020196A11DB11D80930002C5
:1009B00090930102A0930202B0930302BF91AF9102
:1009C0009F918F913F912F910F900FBE0F901F908D
:1009D00018952FB7F8946091FC017091FD018091FA
:1009E000FE019091FF012FBF08953FB7F8948091C9
:1009F000000290910102A0910202B091030226B57B
:100A0000A89B05C02F3F19F00196A11DB11D3FBF46
:100A1000BA2FA92F982F8827820F911DA11DB11DD4
:100A2000BC01CD0142E0660F771F881F991F4A95D0
:100A3000D1F708958F929F92AF92BF92CF92DF929B
:100A4000EF92FF926B017C010E94F5044B015C0167
:100A5000C114D104E104F10401F10E947E090E9455
:100A6000F504DC01CB0188199909AA09BB09883E64
:100A70009340A105B10560F321E0C21AD108E10855
:100A8000F10888EE880E83E0981EA11CB11CC114E9
:100A9000D104E104F10419F7DBCFFF90EF90DF9070
:100AA000CF90BF90AF909F908F900895789484B529
:100AB000826084BD84B5816084BD85B5826085BD5A
:100AC00085B5816085BDEEE6F0E080818160808340
:100AD000E1E8F0E010828081826080838081816023
:100AE0008083E0E8F0E0808181608083E1EBF0E0EA
:100AF000808184608083E0EBF0E08081816080838E
:100B0000EAE7F0E080818460808380818260808376
:100B10008081816080838081806880831092C100A1
:100B200008951F920F920FB60F9211242F933F93A7
:100B30004F935F936F937F938F939F93AF93BF93E5
:100B4000EF93FF938091050287FF05C01092850007
:100B50001092840016C020910502022E000C330B67
:100B60008091040290E0281739075CF43091050267
:100B700026E03203F0011124EA5FFD4F808186FDFB
:100B800015C0809105028F5F8093050220910502B8
:100B9000022E000C330B8091040290E028173907D5
:100BA00094F4809105028C302CF10DC03091050237
:100BB0003203F0011124EA5FFD4F808160E08F7302
:100BC0000E94E409DECF80918400909185008434F6
:100BD0009C4918F480E49CE905C0809184009091C0
:100BE0008500049690938900809388008FEF80930E
:100BF0000502C5C03091050226E03203F001112440
:100C0000EA5FFD4F8581882309F48FC0409105027A
:100C1000309105024203D0011124AA5FBD4F320377
:100C2000F0011124EA5FFD4F13964D915C911497EA
:100C3000818192818417950778F540910502309162
:100C400005023203F0011124EA5FFD4F4203D00197
:100C50001124AA5FBD4F15963C9181819281830F2B
:100C6000911D9283818340910502309105024203D8
:100C7000D0011124AA5FBD4F3203F0011124EA5FB5
:100C8000FD4F13964D915C91149781819281841749
:100C9000950708F44AC02DC0409105023091050225
:100CA0003203F0011124EA5FFD4F4203D001112409
:100CB000AA5FBD4F15963C9181819281831B91095A
:100CC0009283818340910502309105024203D00155
:100CD0001124AA5FBD4F3203F0011124EA5FFD4FDA
:100CE00013964D915C911497818192814817590711
:100CF000E0F030910502409105023203F001112429
:100D0000EA5FFD4F4203D0011124AA5FBD4F139645
:100D10008D919C91149792838183309105023203C7
:100D2000F0011124EA5FFD4F15824091840050913B
:100D300085003091050226E03203F0011124EA5FBC
:100D4000FD4F81819281840F951F9093890080933C
:100D50008800309105023203F0011124EA5FFD4F53
:100D6000808186FF0CC0309105023203F00111240E
:100D7000EA5FFD4F808161E08F730E94E409FF917B
:100D8000EF91BF91AF919F918F917F916F915F9103
:100D90004F913F912F910F900FBE0F901F9018957C
:100DA000DC01E0910402EC30C8F481E08E0F809306
:100DB0000402EC9386E0E89FF0011124EA5FFD4F06
:100DC00088EB9BE09283818315961C9215978AE0AD
:100DD00091E014969C938E93139708958FEF8C93C4
:100DE0000895CF92DF92EF92FF921F93CF93DF93FC
:100DF000EC01162F6A01790188818C3008F063C0FC
:100E000061E0812F0E94A809888196E0899FF00106
:100E10001124EA5FFD4F1F739081907C192B108382
:100E200060E272E0AB014C195D0957FF02C04D5FF3
:100E30005F4F5595479555954795498340E659E04D
:100E40009A012E193F0937FF02C02D5F3F4F35959C
:100E50002795359527952A836CE00E94240A9CE00B
:100E6000899FA001112420E030E096E0B901640FD1
:100E7000751F969FF001979FF00D1124EA5FFD4FBB
:100E8000608166FD16C02F5F3F4F2C30310571F732
:100E900081110FC01092800082E080938100109237
:100EA000850010928400B19A80916F0082608093D7
:100EB0006F00E88186E0E89FF0011124EA5FFD4FB2
:100EC0008081806480838881DF91CF911F91FF9022
:100ED000EF90DF90CF90089520E639E040E252E0B5
:100EE0000C94F106DC01EC91EC3080F511968C91BC
:100EF000119728E830E0281B310987FD3395220F30
:100F0000331F220F331F6217730784F012968C91E0
:100F100028E532E0281B310987FD3395220F331F66
:100F2000220F331F621773070CF49B018FB7F894DD
:100F300096E0E99FF0011124EA5FFD4F225031094C
:100F4000220F331F328321838FBF15820895AF9202
:100F5000BF92CF92DF92EF92FF920F931F93CF93A6
:100F6000DF93EC01603282E078070CF03EC0653B15
:100F7000710514F064EB70E0898128E830E05901D4
:100F8000A81AB10887FDB394AA0CBB1CAA0CBB1C01
:100F90000B2C000CCC08DD0877FF02C060E070E08D
:100FA000072E000C880B990B2A8108E512E0021B22
:100FB000110927FD1395000F111F000F111F012E9E
:100FC000000C220B330B3F932F931F930F9314EBC3
:100FD000E12EF12C00E010E020E030E0A9010E94B9
:100FE0003D090F900F900F900F90CE01DF91CF91A0
:100FF0001F910F91FF90EF90DF90CF90BF90AF9037
:101000000C9472079F92AF92BF92CF92DF92EF92B1
:10101000FF920F931F93CF93DF93EC01942E442301
:1010200009F474C0603232E073070CF03EC0653BD7
:10103000710514F064EB70E0898128E830E0590113
:10104000A81AB10887FDB394AA0CBB1CAA0CBB1C40
:101050000B2C000CCC08DD0877FF02C060E070E0CC
:10106000072E000C880B990B2A8108E512E0021B61
:10107000110927FD1395000F111F000F111F012EDD
:10108000000C220B330B3F932F931F930F9314EB02
:10109000E12EF12C00E010E020E030E0A9010E94F8
:1010A0003D090F900F900F900F90E881EC30D8F52C
:1010B000298188E890E0821B910927FD9395880F8C
:1010C000991F880F991F6817790784F08A8128E58E
:1010D00032E0281B310987FD3395220F331F220F81
:1010E000331FCB01261737070CF4C9012FB7F8942B
:1010F00036E0E39FF0011124EA5FFD4F0297880F6D
:10110000991F9483838395822FBF0DC0DF91CF9168
:101110001F910F91FF90EF90DF90CF90BF90AF9015
:101120009F900C94A707DF91CF911F910F91FF9093
:10113000EF90DF90CF90BF90AF909F900895DC012B
:10114000EC91EF3FA1F0B6E0EB9FF0011124EA5FD4
:10115000FD4F8181928123E0880F991F2A95E1F745
:1011600034E0969587953A95E1F70296089580E0E8
:1011700090E00895AF92BF92CF92DF92EF92FF92EC
:101180000F931F93CF93DF93EC010E949F082A8156
:1011900048E552E07A01E21AF10827FDF394EE0CDB
:1011A000FF1CEE0CFF1C0F2C000C000B110B4981D7
:1011B00028E830E0241B310947FD3395220F331F07
:1011C000220F331F032E000C440B550B0196BC015C
:1011D000990F880B990B1F921F921F92E4EBEF93CC
:1011E000A12CB12C65010E943D090F900F900F902A
:1011F0000F90CB01DF91CF911F910F91FF90EF9056
:10120000DF90CF90BF90AF900895EF92FF920F9331
:101210001F93CF93DF931F92CDB7DEB78C017B0175
:1012200029830E94020829812223F9F080E2E8162E
:1012300082E0F8066CF4C8010E94BA088E159F057A
:10124000A1F065E070E080E090E00E941A05F3CF25
:10125000C8010E949F088E159F0539F065E070E077
:1012600080E090E00E941A05F3CF0F90DF91CF91BC
:101270001F910F91FF90EF9008954F925F926F92A0
:101280007F92AF92BF92CF92DF92EF92FF920F9335
:101290001F93CF93DF93CDB7DEB729013A019B01AE
:1012A000AC01241935094609570989899A89AB89FE
:1012B000BC89BC01CD016A197B098C099D090E947A
:1012C000140AA801970124193509460957090E94F3
:1012D000520ACA01B9016A0D7B1D8C1D9D1DDF914B
:1012E000CF911F910F91FF90EF90DF90CF90BF9023
:1012F000AF907F906F905F904F90089508958330E6
:1013000081F028F4813099F08230A1F0089587307F
:10131000A9F08830B9F08430D1F4809180008F7DBD
:1013200003C0809180008F7780938000089584B5FA
:101330008F7702C084B58F7D84BD08958091B00001
:101340008F7703C08091B0008F7D8093B0000895A7
:10135000CF93DF9390E0FC01E458FF4F2491FC0110
:10136000E057FF4F8491882361F190E0880F991F27
:10137000FC01E255FF4FC591D491FC01EC55FF4FA4
:10138000A591B491611109C09FB7F8948881209507
:1013900082238883EC912E230BC0623061F49FB7C7
:1013A000F8943881822F809583238883EC912E2BAB
:1013B0002C939FBF06C08FB7F894E8812E2B28830B
:1013C0008FBFDF91CF9108951F93CF93DF93282F85
:1013D00030E0F901E859FF4F8491F901E458FF4FDB
:1013E000D491F901E057FF4FC491CC23C9F0162FD7
:1013F00081110E947F09EC2FF0E0EE0FFF1FEC55EA
:10140000FF4FA591B4918FB7F894111105C09C912D
:10141000ED2FE095E92302C0EC91ED2BEC938FBF0B
:10142000DF91CF911F910895DB018F939F930E94CD
:10143000710ABF91AF91A29F800D911DA39F900D46
:10144000B29F900D11240895991B79E004C0991F53
:10145000961708F0961B881F7A95C9F7809508950E
:10146000A1E21A2EAA1BBB1BFD010DC0AA1FBB1FA8
:10147000EE1FFF1FA217B307E407F50720F0A21B1A
:10148000B30BE40BF50B661F771F881F991F1A9487
:1014900069F760957095809590959B01AC01BD01B1
:1014A000CF010895052E97FB1EF400940E94690A4F
:1014B00057FD07D00E94300A07FC03D04EF40C946D
:1014C000690A50954095309521953F4F4F4F5F4F9A
:1014D000089590958095709561957F4F8F4F9F4FA0
:1014E00008950E94820AA59F900DB49F900DA49F1D
:1014F000800D911D11240895EE0FFF1F0590F491AA
:10150000E02D0994A29FB001B39FC001A39F700D6D
:10151000811D1124911DB29F700D811D1124911DFB
:061520000895F894FFCFCE
:1015260000004E0280000100000000642D64547922
:101536007065642066726F6D206B6579626F61728B
:10154600643A200041637475616C20736572766F2E
:1015560020616E676C653A2000000000008601C1BC
:101566000207012101130164010D0A006E616E007C
:08157600696E66006F766600E5
:00000001FF
